:020000040800F2
:10000000600600206D0100083D040008A3030008FD
:100010003904000827020008B105000800000000AC
:100020000000000000000000000000006104000863
:100030002B020008000000003F0400084D050008E6
:100040008701000887010008870100088701000870
:100050008701000887010008870100088701000860
:100060008701000887010008870100088701000850
:100070008701000887010008870100088701000840
:100080008701000887010008870100088701000830
:100090008701000887010008870100088701000820
:1000A0008701000887010008870100088701000810
:1000B0008701000887010008870100088701000800
:1000C00087010008870100088701000887010008F0
:1000D00087010008870100088701000887010008E0
:1000E00087010008870100088701000800F002F876
:1000F00000F02CF80AA090E8000C82448344AAF196
:100100000107DA4501D100F021F8AFF2090EBAE893
:100110000F0013F0010F18BFFB1A43F0010318473B
:10012000C0050000D00500000023002400250026A3
:10013000103A28BF78C1FBD8520728BF30C148BF4A
:100140000B6070471FB51FBD10B510BD00F031F832
:100150001146FFF7F7FF00F02DFA00F04FF803B457
:10016000FFF7F2FF03BC00F057F800000948804792
:1001700009480047FEE7FEE7FEE7FEE7FEE7FEE789
:10018000FEE7FEE7FEE7FEE704480549054A064BA1
:100190007047000051050008ED00000860000020D5
:1001A0006006002060020020600200207047704757
:1001B0007047754600F02CF8AE4605006946534678
:1001C00020F00700854618B020B5FFF7DDFFBDE839
:1001D00020404FF000064FF000074FF000084FF0AE
:1001E000000B21F00701AC46ACE8C009ACE8C0093F
:1001F000ACE8C009ACE8C0098D46704710B50446AC
:10020000AFF300802046BDE81040FFF7A8BF000014
:10021000004870470000002001491820ABBEFEE7EF
:1002200026000200704700BFFEE7704700B5034696
:1002300003E04FF47A7000F005F8181EA3F10103F3
:10024000F7D100BD00EBC001C9004FF0E0225161C1
:10025000002191610521116100BF4FF0E021096982
:1002600001F480310029F8D004214FF0E02211611F
:1002700070472DE9F04102460025002600200023AA
:100280000024002791F803C00CF00F0591F803C07B
:100290000CF0100CBCF1000F03D091F802C04CEA36
:1002A000050591F800C0BCF1000F31D014680020A2
:1002B0002BE04FF0010C0CFA00F3B1F800C00CEA8F
:1002C00003069E4220D183004FF00F0C0CFA03F777
:1002D000BC4305FA03FC4CEA040491F803C0BCF1EA
:1002E000280F06D14FF0010C0CFA00FCC2F814C024
:1002F0000AE091F803C0BCF1480F05D14FF0010CA2
:100300000CFA00FCC2F810C0401C0828D1D31460BD
:10031000B1F800C0BCF1FF0F34DD546800202EE0BE
:1003200000F1080C4FF0010808FA0CF3B1F800C016
:100330000CEA03069E4221D183004FF00F0C0CFA09
:1003400003F7BC4305FA03FC4CEA040491F803C02C
:10035000BCF1280F05D100F1080C08FA0CF8C2F81E
:10036000148091F803C0BCF1480F07D100F1080CCC
:100370004FF0010808FA0CF8C2F81080401C082859
:10038000CED35460BDE8F0810246002093680B4054
:100390000BB1012000E0002070474161704701610E
:1003A000704700BFFEE7000010B50024022114488A
:1003B000FFF7EAFF68B91420FFF738FF00BF0221FA
:1003C0000F48FFF7E1FF0028F9D01420FFF72EFFB8
:1003D00001244FF400610A48FFF7D6FF70B91420DA
:1003E000FFF724FF00BF4FF400610548FFF7CCFF83
:1003F0000028F8D01420FFF719FF0224204610BD72
:100400000008014008B50121042000F019F8482037
:100410008DF8030040F60A00ADF8000003208DF8C7
:10042000020069460348FFF724FF08210148FFF74F
:10043000B6FF08BD0008014000BFFEE770477047E7
:1004400029B1064A92690243044B9A6104E0034AC7
:1004500092698243014B9A6170470000001002408C
:10046000704710B500F002F810BD00000CB5002078
:10047000019000903348006840F4803031490860B2
:1004800000BF3048006800F4003000900198401C24
:100490000190009818B90198B0F5A06FF1D12948E2
:1004A000006800F4003010B10120009001E000204D
:1004B00000900098012843D12348006840F01000C4
:1004C000214908600846006820F0030008600846DB
:1004D000006840F0020008601A4840681949486006
:1004E0000846406848600846406840F480604860BC
:1004F0000846406820F47C1048600846406840F494
:10050000E81048600846006840F08070086000BF4E
:100510000C48006800F000700028F9D009484068D5
:1005200020F00300074948600846406840F0020098
:10053000486000BF0348406800F00C000828F9D16B
:100540000CBD000000100240002002407047000077
:1005500010B51348006840F00100114908600846D2
:100560004068104908400E494860084600680E4936
:1005700008400B4908600846006820F480200860A5
:100580000846406820F4FE0048604FF41F00886071
:10059000FFF767FF4FF000600449086010BD0000DE
:1005A000001002400000FFF8FFFFF6FE08ED00E03B
:1005B00000BFFEE71CB56420FFF738FE01210820CC
:1005C000FFF73EFF01211020FFF73AFF10208DF8C2
:1005D00007004002ADF8040003208DF8060001A9D1
:1005E0001A48FFF746FE10208DF807004FF47040C0
:1005F000ADF8040003208DF8060001A91448FFF7A8
:1006000038FE4FF400511148FFF7C7FEFFF7FAFE1E
:100610001BE0FFF7C9FE0446012C12D108210D484A
:10062000FFF7BBFE6420FFF701FE08210948FFF732
:10063000B6FEE00343108210C1100090044800F0A1
:100640000BF8C820FFF7F2FD00BFE2E70010014001
:10065000000C0140000801402DE9F047074688469C
:1006600014461D46DDF82090002635E04946384600
:10067000FFF795FE0220FFF7D9FD21463846FFF728
:100680008CFE0220FFF7D2FD41463846FFF787FE79
:100690000220FFF7CBFD29463846FFF77EFE0220F9
:1006A000FFF7C4FD21463846FFF779FE0220FFF729
:1006B000BDFD49463846FFF770FE0220FFF7B6FD44
:1006C00029463846FFF76BFE0220FFF7AFFD414693
:1006D0003846FFF762FE761C802EC7DBBDE8F08748
:1006E000F006000800000020600600002801000855
:04000005080000ED02
:00000001FF
