:020000040800F2
:1000000098060020890100084D050008AF0300088C
:100010004905000843020008AB0B0008000000007F
:10002000000000000000000000000000CD060008F5
:100030004702000800000000D50500088D080008F0
:10004000A3010008A3010008A3010008A301000800
:10005000A3010008A3010008A3010008A3010008F0
:10006000A3010008A3010008A3010008A3010008E0
:10007000A3010008A3010008A3010008A3010008D0
:10008000A3010008A3010008A3010008A3010008C0
:10009000A3010008A3010008A3010008A3010008B0
:1000A000A3010008A3010008A3010008A3010008A0
:1000B000A3010008A3010008A3010008A301000890
:1000C000A3010008A3010008A3010008A301000880
:1000D000A3010008F1080008A3010008A30100081B
:1000E000A3010008A3010008A301000800F002F822
:1000F00000F03AF80AA090E8000C82448344AAF188
:100100000107DA4501D100F02FF8AFF2090EBAE885
:100110000F0013F0010F18BFFB1A43F0010318473B
:10012000A0100000C0100000103A24BF78C878C1A9
:10013000FAD8520724BF30C830C144BF04680C60ED
:10014000704700000023002400250026103A28BF35
:1001500078C1FBD8520728BF30C148BF0B60704739
:100160001FB51FBD10B510BD00F031F81146FFF7E7
:10017000F7FF00F0F7FD00F04FF803B4FFF7F2FFD0
:1001800003BC00F057F800000948804709480047C1
:10019000FEE7FEE7FEE7FEE7FEE7FEE7FEE7FEE737
:1001A000FEE7FEE704480549054A064B7047000094
:1001B00091080008ED000008980000209806002033
:1001C00098020020980200207047704770477546DB
:1001D00000F02CF8AE4605006946534620F00700B3
:1001E000854618B020B5FFF7DDFFBDE820404FF091
:1001F00000064FF000074FF000084FF0000B21F011
:100200000701AC46ACE8C009ACE8C009ACE8C009DD
:10021000ACE8C0098D46704710B50446AFF30080C6
:100220002046BDE81040FFF7A8BF00000048704717
:100230003400002001491820ABBEFEE72600020072
:10024000704700BFFEE7704700B5034603E04FF478
:100250007A7000F005F8181EA3F10103F7D100BD74
:1002600000EBC001C9004FF0E02251610021916113
:100270000521116100BF4FF0E021096901F48031CF
:100280000029F8D004214FF0E022116170472DE9D8
:10029000F04102460025002600200023002400270C
:1002A00091F803C00CF00F0591F803C00CF0100C8E
:1002B000BCF1000F03D091F802C04CEA050591F89B
:1002C00000C0BCF1000F31D0146800202BE04FF0CB
:1002D000010C0CFA00F3B1F800C00CEA03069E42D0
:1002E00020D183004FF00F0C0CFA03F7BC4305FA42
:1002F00003FC4CEA040491F803C0BCF1280F06D1BA
:100300004FF0010C0CFA00FCC2F814C00AE091F89E
:1003100003C0BCF1480F05D14FF0010C0CFA00FCF2
:10032000C2F810C0401C0828D1D31460B1F800C036
:10033000BCF1FF0F34DD546800202EE000F1080C02
:100340004FF0010808FA0CF3B1F800C00CEA0306FC
:100350009E4221D183004FF00F0C0CFA03F7BC43EF
:1003600005FA03FC4CEA040491F803C0BCF1280F21
:1003700005D100F1080C08FA0CF8C2F8148091F8C5
:1003800003C0BCF1480F07D100F1080C4FF0010881
:1003900008FA0CF8C2F81080401C0828CED354602C
:1003A000BDE8F0810AB1016100E04161704700BF22
:1003B000FEE7000070B505460C460021204600F01F
:1003C000CDFE36D2012291025C48FFF7EBFF0122FD
:1003D000D1025A48FFF7E6FF5949284600F044FE8B
:1003E00010D85849284600F0B9FE0BD200224FF42D
:1003F00080715248FFF7D6FF012251024F48FFF7A4
:10040000D1FF99E0012211024C48FFF7CBFF4D4983
:10041000284600F029FE06D800224FF40071474814
:10042000FFF7C0FF88E0012251024448FFF7BAFFFE
:1004300082E00021204600F017FE36D20122110290
:100440003E48FFF7AFFF012251023C48FFF7AAFFE9
:100450003B49284600F008FE10D83A49284600F0EB
:100460007DFE0BD200224FF480613448FFF79AFFE3
:100470000122D1023148FFF795FF5DE00122910290
:100480002E48FFF78FFF2F49284600F0EDFD06D8D4
:1004900000224FF400612948FFF784FF4CE001225D
:1004A000D1022648FFF77EFF46E02549284600F0A6
:1004B000DBFD1BD82349284600F050FE16D200224F
:1004C0004FF400611D48FFF76DFF012291021B48A8
:1004D000FFF768FF00224FF400711848FFF762FF32
:1004E000012211021548FFF75DFF25E00122D1022C
:1004F0001248FFF757FF012251021048FFF752FF41
:100500001049284600F0B0FD0CD800224FF480615D
:100510000A48FFF747FF00224FF480710748FFF7B2
:1005200041FF09E0012291020448FFF73BFF01224D
:1005300011020248FFF736FF70BD0000000C0140B9
:100540000000A0420000204200BFFEE7704700000C
:1005500070B5002100230F22C47804B3154C246821
:1005600004F4E064C4F5E064210AC1F10403CA4064
:10057000447804FA03F184781440214309010E4CB5
:100580000678A155047804F01F050124AC400578D5
:100590006D11AD0005F1E025C5F8004109E00478D2
:1005A00004F01F050124AC40044D0678761145F88F
:1005B000264070BD0CED00E000E400E080E100E0CA
:1005C00002490143024A1160704700000000FA0529
:1005D0000CED00E07047000029B1064A9269024321
:1005E000044B9A6104E0034A92698243014B9A6189
:1005F000704700000010024030B5002100220024A6
:1006000000232D4D6D6805F00C0121B1042905D0A2
:10061000082923D105E0294D056022E0274D05601A
:100620001FE0254D6D6805F47012234D6D6805F4CB
:100630008034022505EB92421CB9214D55430560DB
:100640000BE01D4D6D6805F400351DB11C4D554383
:10065000056002E0194D5543056002E0174D056045
:1006600000BF00BF144D6D6805F0F0010909154D7C
:100670006B5C0568DD4045600F4D6D6805F4E06119
:10068000090A104D6B5C4568DD4085600A4D6D6858
:1006900005F46051C90A0B4D6B5C4568DD40C560CF
:1006A000054D6D6805F44041890B074D6B5CC568CD
:1006B000B5FBF3F5056130BD0010024000127A0071
:1006C00000093D00000000201000002070470000DD
:1006D00005480078012804D1002003490870012052
:1006E00070470020FCE700002500002000B587B01F
:1006F00001218803FFF770FF01210420FFF76CFF41
:1007000018208DF81B004FF40070ADF8180003207E
:100710008DF81A0006A92148FFF7B9FD48208DF889
:100720001B004FF48060ADF8180003208DF81A000C
:1007300006A91A48FFF7ABFD4FF47A30029000206B
:10074000ADF814000C20ADF812000020ADF8100038
:10075000ADF80E00ADF80C0002A9114800F0B4F994
:10076000012240F225510E4800F089F94FF4A060B3
:10077000FFF726FF25208DF8040001208DF80700E3
:100780008DF805008DF8060001A8FFF7E1FE0121B4
:10079000034800F03EF907B000BD0000000801402A
:1007A0000038014010B500F001F810BD0CB5002074
:1007B000019000903348006840F48030314908606F
:1007C00000BF3048006800F4003000900198401CE1
:1007D0000190009818B90198B0F5A06FF1D129489F
:1007E000006800F4003010B10120009001E000200A
:1007F00000900098012843D12348006840F0100081
:10080000214908600846006820F003000860084697
:10081000006840F0020008601A48406819494860C2
:100820000846406848600846406840F48060486078
:100830000846406820F47C1048600846406840F450
:10084000E81048600846006840F08070086000BF0B
:100850000C48006800F000700028F9D00948406892
:1008600020F00300074948600846406840F0020055
:10087000486000BF0348406800F00C000828F9D128
:100880000CBD000000100240002002407047000034
:1008900010B51348006840F001001149086008468F
:1008A0004068104908400E494860084600680E49F3
:1008B00008400B4908600846006820F48020086062
:1008C0000846406820F4FE0048604FF41F0088602E
:1008D000FFF768FF4FF000600449086010BD00009A
:1008E000001002400000FFF8FFFFF6FE08ED00E0F8
:1008F00010B540F22551384800F097F801286AD128
:10090000354800F04DF9354908703548007805281C
:100910005BD2DFE800F0031D323A4F002F48007829
:10092000FF2808D101202E49087000202D490860B9
:100930002D4908700BE029480078FD2807D10320D5
:1009400027490870002029490860274908703CE0C1
:10095000224800782349096800EB012021490860FA
:1009600021480078401C2049087008460078042877
:1009700002DB02201A49087027E018480078FE2898
:1009800002D10020164908701FE01448007817496A
:10099000096800EB01201549086013480078401CE5
:1009A0001149087008460078042802DB04200C492D
:1009B00008700AE009480078FC2805D100200849A1
:1009C000087001200A49087000BF00BF40F225519D
:1009D000014800F00FF810BD00380140240000204D
:1009E0003000002028000020310000202C000020D2
:1009F0002500002010B50022002340F66A14A14211
:100A000000D100BF0A1201249440A3B2DC43048049
:100A100010BD21B1828942F40052828104E08289B2
:100A20004DF6FF731A408281704770B5024600246C
:100A300000230025002040F66A16B14200D100BF15
:100A4000C1F3421501F01F03012606FA03F3012D3D
:100A500002D19689334006E0022D02D1168A334036
:100A600001E0968A33400C12012606FA04F4168837
:100A7000344013B10CB1012000E0002070BDF0B58E
:100A80000346002400260025002040F66A17B942DC
:100A900000D100BF1846C1F3421401F01F06012720
:100AA00007FA06F5012C01D10C3004E0022C01D12B
:100AB000103000E014301AB107682F43076002E0DD
:100AC0000768AF430760F0BD2DE9F04786B00546E3
:100AD0000E460024A24600BFA1460027B08900B1FF
:100AE00000BF2F462C8A4CF6FF700440F088044368
:100AF0002C82AC894EF6F3100440B088318908434B
:100B0000718908430443AC81AC8A4FF6FF4004402E
:100B1000B0890443AC8201A8FFF76EFD1F488742ED
:100B200002D1DDF810A001E0DDF80CA0A88900F4E6
:100B3000004040B10AEBCA0000EB0A1031684900DE
:100B4000B0FBF1F807E00AEBCA0000EB0A103168CD
:100B50008900B0FBF1F86420B8FBF0F00401200933
:100B6000642101FB1089A88900F4004040B13220C3
:100B700000EBC900B0FBF1F000F00700044308E00F
:100B8000322000EB09106421B0FBF1F000F00F00FF
:100B900004432C8106B0BDE8F08700000038014016
:100BA00001468888C0F30800704700BFFEE70000D8
:100BB00070B505460C46002D3ED02049204600F079
:100BC000CDFA0AD81E49204600F04EFA05D201227D
:100BD0001C49284600F0AAF82EE01949204600F0EA
:100BE000BDFA0AD80021204600F03EFA05D20222C2
:100BF0001449284600F09AF81EE00021204600F033
:100C0000ADFA0AD81049204600F02EFA05D220226B
:100C10000C49284600F08AF80EE00B49204600F007
:100C20009DFA09D80949204600F01EFA04D2402254
:100C30000449284600F07AF870BD0000000034C373
:100C40000000B4C2000801400000B4420000344378
:100C500070B50446204600F0CFF9054600222E4B21
:100C600000F094F906D82D49204600F0FDF901D294
:100C7000962070BD204600F0BFF905460022284BA3
:100C800000F084F90BD8204600F0B6F905460022A2
:100C9000214B00F0EBF802D24FF49670E9E72046C2
:100CA00000F0AAF9054600221E4B00F06FF90BD8A0
:100CB000204600F0A1F905460022194B00F0D6F8B5
:100CC00002D24FF4E170D4E7204600F095F90546D2
:100CD0000022154B00F05AF90BD8204600F08CF991
:100CE000054600220F4B00F0C1F802D24FF41670F7
:100CF000BFE70021204600F031FA0BD8204600F073
:100D00007BF905460022084B00F0B0F802D240F211
:100D1000EE20AEE70020ACE7000050400000A0420B
:100D20000000484000004040000030402DE9F04104
:100D300004460D4616460A4890FBF4F70122314658
:100D40002846FFF72FFB3846FFF78AFA0022314684
:100D50002846FFF727FB3846FFF782FABDE8F08107
:100D600040420F004FF4FA70FFF76EFA012108209D
:100D7000FFF732FCFFF7BAFC274B102203210120BA
:100D800000F058F8244B10220321022000F052F802
:100D9000214B10220321202000F04CF81E4B102282
:100DA0000321402000F046F81C4B14220321981523
:100DB00000F040F8194B14220321581500F03AF8BE
:100DC000164B14220321181500F034F8134B14228B
:100DD0000321D81400F02EF81DE0FFF779FC01285C
:100DE00007D10F4800680F4908600F4800680F4995
:100DF00008600E4801680B480068FFF7DBFA0948F5
:100E00000068FFF725FF0A4908600848016808489C
:100E10000068FFF7CDFEE0E700080140000C01404C
:100E2000280000201C0000202C00002020000020B2
:100E300018000020F8B504460D4617461E468DF8EA
:100E40000370ADF800408DF8025069463046FFF758
:100E50001EFAF8BD491058BFC1F140415B1058BFA0
:100E6000C3F140438B42EFF30080704751EA030C1B
:100E700017D41CF5801F58BFBCF5801F00F10680F9
:100E8000994218BF704708BF9042704707D711F5C5
:100E9000801F58BF13F5801F19D4994270478942AB
:100EA00070471CF5801F08D5BCF5801FF7D58B4215
:100EB00018BF704708BF824270474FF4001C1CEBFC
:100EC000410F38BF1CEB430F01D28B42704770B506
:100ED00000F008F8922449004FF000514FF0805381
:100EE000FFF7B8BF0EF1020E2EF0030E5EF8046B92
:100EF000364205D4012A43EB030515F5001F12D82D
:100F0000012841EB010C1CF5001F0CD80ED14FEA53
:100F1000D17C15F5001F0CEB4C0C0CF1020C08BF3A
:100F20004CEBD37C04E04FF0080C01E04FEAD37C9B
:100F30000CEB4C0526FA05F606F00706B6F1040C94
:100F400006D20EEB860CBDE870404CF0010C6047F9
:100F5000DFE80CF0090B02024FF000414FF00000F7
:100F6000A1F5002170BD19461046012851EB01047E
:100F700018BFD4F5001484BF002001F0004170BDFB
:100F80000808A0F500114FEA3101704753EA010C3F
:100F900017D41CF5801F58BFBCF5801F00F10680D8
:100FA0008B4218BF704708BF8242704707D713F5BE
:100FB000801F58BF11F5801F19D48B4270479B4288
:100FC00070471CF5801F08D5BCF5801FF7D59942E6
:100FD00018BF704708BF904270474FF4001C1CEBCD
:100FE000430F38BF1CEB410F01D2994270470FB439
:100FF0000CBC03BCFFF76BBF43004FEAD30C4FEAB6
:101000003C0C43401FBF40070CF1605113F0FE4FF2
:1010100070471CF0006F03D100200CF000417047B6
:101020000CF0004343EA507010B540EACC0000F0E9
:101030004FF800BF000000924FEA0001FFF7A0BF89
:101040004FF000414FF00000A1F500217047401023
:1010500058BFC0F14040491058BFC1F140418142E2
:10106000EFF300807047000050EA010C00F113809C
:101070001CF5000F58BFBCF5000F01D48842704723
:1010800007D710F5000F58BF11F5000F15D488428F
:101090007047894270471CF5000F04D5BCF5000F5E
:1010A000F7D5814270474FF0807C1CEB400F38BF72
:1010B0001CEB410F01D28142704710B500F008F8D7
:1010C000922449004FF000504FF08051FFF7BFBF0E
:1010D0000EF1020E2EF0030E5EF8044B244204D4EF
:1010E0004FEA4102B2F17F4F11D84FEA4003B3F10A
:1010F0007F4F0CD80ED14FEAD07CB2F17F4F0CEB72
:101100004C0C0CF1020C08BF4CEBD17C04E04FF00E
:10111000080C01E04FEAD17C0CEB4C0324FA03F4F9
:1011200004F00704B4F1040C06D20EEB840CBDE805
:1011300010404CF0010C6047DFE80CF00708020299
:101140004FF00040A0F5800010BD0846420018BFD7
:10115000D2F1807288BF00F0004010BD51EA000C4F
:1011600000F113801CF5000F58BFBCF5000F01D42F
:101170008142704707D711F5000F58BF10F5000FD7
:1011800015D481427047894270471CF5000F04D581
:10119000BCF5000FF7D5884270474FF0807C1CEB00
:1011A000410F38BF1CEB400F01D28842704780EAE4
:1011B000010081EA000180EA0100FFF77EBF000024
:1011C000E0110008000000203400000028010008A1
:1011D00014120008340000206406000044010008D6
:1011E00000000000010203040102030406070809CD
:1011F00002040608000000000000000000401C4639
:1012000000000000000000000000000000000000DE
:0412100000000000DA
:040000050800018965
:00000001FF
